:200000000C9462050C948A050C948A050C948A050C948A050C948A050C948A050C948A0590
:200020000C948A050C948A050C948A050C948A050C948A050C948A050C948A050C948A0548
:200040000C94E8190C948A050C94DB110C94B5110C948A050C948A050C948A050C948A0522
:200060000C94850B0C948A052200FF2100DB40A4A62EAFDA0281DA1281DA02818F2000A126
:20008000C8D300408DAED580A80000600000000000000000000000000000E000000000000D
:2000A000000000000000000001E00000000000000000000000000001F0000000000000006E
:2000C00000000000000003F00000000000000000000000000007F000000000000000000036
:2000E0000000000007F8000000000000000000000000000FF800000003C0007E000001E0D8
:20010000007F0FF800000003C000FE000001E000FFEFF800000003C000FE000001E000FF30
:20012000FFF800000003C000F00000000F007FFE7FC0000003C000F00000000F003FFE7FCC
:20014000F83FF1FBCFFCFEF3BC3DEFE01FFE7FFF7FFBFFDFFEFEFFBC3DEFE01FC6FFFF7FE0
:20016000FBFFDFFEFEFFBC3DEFE00FE3C7FE787BC3DE1EF0FFBC3DEF0007FF87FC787BC364
:20018000DE1EF0F83C3DEF0001FFFFF0007BC3C01EF0F03C3DEF0001F37FE03FFBC3CFFEA3
:2001A000F0F03C3DEF0003E33F807FFBC3DFFEF0F03C3DEF0007E73C00787BC3DE1EF0F034
:2001C0003C3DEF0007FFBE00787BC3DE1EF0F03C3DEF0007FFFE00787BC3DE1EF0F03C3DEA
:2001E000EF000FFFFE007FFBFFDFFEF0F03FFDEFE00FFFFF007FFBFFDFFEF0F03FFDEFE075
:200200000FF9FF003E79F9CF9EF0F01F3DE7E01FF1FF0000000000000000000000001F8009
:20022000FF007FFFFFFFFFFFFFFFFFFFE01C007F007FFFFFFFFEB46D888D18E000001F0007
:200240007FFFFFFFFE95AD7DB577E000000F007FFFFFFFFEA5AD9D8D19E0000006007FFFD7
:20026000FFFFFEB5ADEDB57EE000000000000180000000000000000000038000000000001C
:200280000000000007C000000000000000000007C00000000000000000000FC00000000001
:2002A00000000000001FE00000000000000000001FE00000000000000000003FE000000021
:2002C0000000000000003FF00000000000000000007FF0000000000000001FF87FF00000FA
:2002E00000000000003FFE7FF0000000000000003FFF7FF0000000000000001FFFFBE000AC
:200300000000000000000FFFF9FFC00000000000000FFFF9FFF800000000000007FFF1FF23
:20032000FF00000000000003FC73FFFF80000000000001FE3FFFFF80000000000000FF1EF5
:200340000FFF000000000000007FFE1FFC000000000000003FFFFFF8000000000000000FB3
:20036000DFFFE0000000000000001F19FFC0000000000000003F3CFF00000000000000004E
:200380007E7CF800000000000000007FFE7C0000000000000000FFFFFC0000000000000078
:2003A00000FFFFFE0000000000000000FFFFFE0000000000000001FFEFFE00000000000058
:2003C0000001FFCFFE0000000000000003FF07FE0000000000000003FC07FE000000000045
:2003E000000003F003FE00000000000000018000FE000000000000000000007E000000000C
:200400000000000000003E000000000000000000000C000000000000078000FC000003C04C
:20042000000000078001FC000003C0000000078001FC000003C0000000078001E0000000C6
:200440001E000000078001E00000001E007FE3F79FF9FDE7787BDFC0FFF7FFBFFDFDFF786C
:200460007BDFC0FFF7FFBFFDFDFF787BDFC0F0F787BC3DE1FF787BDE00F0F787BC3DE1F0D3
:20048000787BDE0000F787803DE1E0787BDE007FF7879FFDE1E0787BDE00FFF787BFFDE179
:2004A000E0787BDE00F0F787BC3DE1E0787BDE00F0F787BC3DE1E0787BDE00F0F787BC3D32
:2004C000E1E0787BDE00FFF7FFBFFDE1E07FFBDFC0FFF7FFBFFDE1E07FFBDFC07CF3F39F73
:2004E0003DE1E03E7BCFC00000000000000000000000FFFFFFFFFFFFFFFFFFFFC0FFFFFF03
:20050000FFFD68DB111A31C0FFFFFFFFFD2B5AFB6AEFC0FFFFFFFFFD4B5B3B1A33C0FFFF09
:20052000FFFFFD6B5BDB6AFDC053544F50504544004F50454E494E4700434C4F53494E47BA
:20054000004F50454E454400434C4F534544004F50454E45440000000000230026002900F9
:2005600000000000240027002A0000000000250028002B0004040404040404040202020266
:200580000202030303030303010204081020408001020408102001020408102000000008C0
:2005A00000020100000304070000000000000000000103070F1F3F7F0080C0E0F0F8FCFE31
:2005C00000000000003E5B4F5B3E3E6B4F6B3E1C3E7C3E1C183C7E3C181C577D571C1C5EC6
:2005E0007F5E1C00183C1800FFE7C3E7FF0018241800FFE7DBE7FF30483A060E2629792955
:2006000026407F050507407F05253F5A3CE73C5A7F3E1C1C08081C1C3E7F14227F22145F65
:200620005F005F5F06097F017F006689956A606060606094A2FFA29408047E040810207E12
:20064000201008082A1C08081C2A08081E101010100C1E0C1E0C30383E3830060E3E0E067C
:20066000000000000000005F00000007000700147F147F14242A7F2A122313086462364947
:200680005620500008070300001C2241000041221C002A1C7F1C2A08083E080800807030FB
:2006A000000808080808000060600020100804023E5149453E00427F400072494949462104
:2006C00041494D331814127F1027454545393C4A4949314121110907364949493646494929
:2006E000291E0000140000004034000000081422411414141414004122140802015909065E
:200700003E415D594E7C1211127C7F494949363E414141227F4141413E7F494949417F09D3
:200720000909013E414151737F0808087F00417F41002040413F017F081422417F404040ED
:20074000407F021C027F7F0408107F3E4141413E7F090909063E4151215E7F0919294626BD
:200760004949493203017F01033F4040403F1F2040201F3F4038403F63140814630304783E
:2007800004036159494D43007F4141410204081020004141417F04020102044040404040B0
:2007A000000307080020545478407F284444383844444428384444287F3854545418000859
:2007C0007E090218A4A49C787F0804047800447D40002040403D007F1028440000417F403C
:2007E000007C047804787C080404783844444438FC1824241818242418FC7C080404084881
:200800005454542404043F44243C4040207C1C2040201C3C4030403C44281028444C90907D
:20082000907C4464544C4400083641000000770000004136080002010204023C2623263CB9
:200840001EA1A161123A4040207A38545455592155557941225454784221555478402054E4
:200860005579400C1E5272123955555559395454545939555454580000457C410002457DF7
:20088000420001457C407D1211127DF0282528F07C545545002054547C547C0A097F493205
:2008A000494949323A4444443A324A4848303A4141217A3A42402078009DA0A07D3D4242E9
:2008C000423D3D4040403D3C24FF2424487E4943662B2FFC2F2BFF0929F620C0887E090337
:2008E00020545479410000447D413048484A32384040227A007A0A0A727D0D19317D262944
:20090000292F28262929292630484D4020380808080808080808382F10C8ACBA2F102834B3
:20092000FA00007B000008142A142222142A14085500550055AA55AA55AAFF55FF55FF00FC
:200940000000FF00101010FF00141414FF001010FF00FF1010F010F0141414FC001414F7A9
:2009600000FF0000FF00FF1414F404FC141417101F10101F101F1414141F00101010F00007
:200980000000001F101010101F10101010F010000000FF101010101010101010FF100000FB
:2009A00000FF140000FF00FF00001F10170000FC04F414141710171414F404F40000FF0073
:2009C000F714141414141414F700F7141414171410101F101F141414F4141010F010F0007D
:2009E000001F101F0000001F14000000FC140000F010F01010FF10FF141414FF14101010C9
:200A00001F00000000F010FFFFFFFFFFF0F0F0F0F0FFFFFF0000000000FFFF0F0F0F0F0FC6
:200A20003844443844FC4A4A4A347E02020606027E027E0263554941633844443C04407E79
:200A4000201E2006027E020299A5E7A5991C2A492A1C4C7201724C304A4D4D30304878487D
:200A600030BC625A463D3E494949007E0101017E2A2A2A2A2A44445F444440514A44404053
:200A8000444A51400000FF0103E080FF000008086B6B083612362436060F090F06000018C4
:200AA000180000001010003040FF0101001F01011E00191D1712003C3C3C3C0000000000FF
:200AC000321A792011241FBECFEFD8E0DEBFCDBF11E0A0E0B1E0E4EDF3E402C005900D92E0
:200AE000A03EB107D9F724E0A0EEB1E001C01D92A839B207E1F715E0C1E6D5E004C02197BE
:200B0000FE010E94AA20C036D107C9F70E94DF1B0C94DD210C940000FC01918D828D981729
:200B200061F0828DDF01A80FB11D5D968C91928D9F5F9F73928F90E008958FEF9FEF0895DA
:200B4000FC01918D828D981731F0828DE80FF11D858D90E008958FEF9FEF0895FC01918DA4
:200B6000228D892F90E0805C9F4F821B91098F739927089580E090E0892B29F00E94F110FE
:200B800081110C9400000895FC0177FDB9C080859185681779070CF0B3C057FDB1C0828547
:200BA0009385481759070CF008958689823079F484819581DC01A61BB70BBD016150710933
:200BC00086819781DC01A41BB50BAD010EC0833009F084C064277527CA0186279727682742
:200BE000792746815781481B590B415051092130310531F048F12230310509F44AC00895F7
:200C0000CA0157FD07969C01A3E035952795AA95E1F7A481B5812A9FC0012B9F900D3A9F36
:200C2000900D1124680F791F078CF0A1E02DE60FF71F4770552781E090E001C0880F4A955C
:200C4000EAF79081892B48C0CA0157FD07969C0193E0359527959A95E1F7A481B5812A9F69
:200C6000C0012B9F900D3A9F900D1124680F791F078CF0A1E02DE60FF71F4770552781E0C2
:200C800090E001C0880F4A95EAF780959081892323C0CA0157FD07969C0183E035952795D5
:200CA0008A95E1F7A481B5812A9FC0012B9F900D3A9F900D1124680F791F078CF0A1E02D06
:200CC000E60FF71F4770552781E090E001C0880F4A95EAF79081892780830895813009F0E2
:200CE00086CF64277527462757276427752784819581DC01A61BB70BBD016150710977CFBC
:200D000008950895FC016370668B8481958126813781613039F0633029F09187808733871F
:200D200022870895318720879387828708956F927F928F929F92AF92BF92CF92DF92EF9205
:200D4000FF920F931F93CF93DF93EC014B015A0169013801E881F9810284F385E02D099517
:200D6000E881F9810288F389E02D87019601A501B401CE010995A501460D571D415051093E
:200D8000E881F9810288F389E02D9601B401CE010995E881F9810088F189E02D9301A50178
:200DA000B401CE010995C80CD91CB60161507109E881F9810088F189E02D9301A501CE016B
:200DC0000995E881F9810688F789E02DCE01DF91CF911F910F91FF90EF90DF90CF90BF905D
:200DE000AF909F908F907F906F9009948F929F92AF92BF92CF92DF92EF92FF920F931F939F
:200E0000CF93DF934C016B015A01E901DC01ED91FC916217730781F40417150724F48B2DA9
:200E20005801042F182F0A191B0998012F5F3F4F048CF58DE02D12C04017510709F5261708
:200E4000370724F48D2D6901C62FD82F9E012C193D092F5F3F4F068CF78DE02D8701A50185
:200E6000B601C4010995DF91CF911F910F91FF90EF90DF90CF90BF90AF909F908F900895E3
:200E80000284F385E02D0995D401ED91FC910488F589E02D9E01A501B601C4010995D4017E
:200EA000ED91FC910688F789E02DC401DF91CF911F910F91FF90EF90DF90CF90BF90AF90BD
:200EC0009F908F900994EF92FF920F931F93DC011A960D911C911B9718962D913C9119974E
:200EE000ED91FC9100A0F1A1E02D7B0140E050E060E070E009951F910F91FF90EF900895B3
:200F00004F925F926F927F928F929F92AF92BF92CF92DF92EF92FF920F931F93CF93DF93FD
:200F20006C012B015A0139014801DC01ED91FC910284F385E02D0995E201640C751CD601EE
:200F4000ED91FC91C615D7055CF40088F189E02D87019401A501BE01C60109952196EFCF14
:200F60000688F789E02DC601DF91CF911F910F91FF90EF90DF90CF90BF90AF909F908F90B7
:200F80007F906F905F904F9009948F929F92AF92BF92CF92DF92EF92FF920F931F93CF935A
:200FA000DF93EC015B014A016901E881F9810284F385E02D099595012C0D3D1D2150310961
:200FC000E881F9810488F589E02D78018401A401B501CE010995E881F9810688F789E02D53
:200FE000CE01DF91CF911F910F91FF90EF90DF90CF90BF90AF909F908F9009948F929F925B
:20100000AF92BF92CF92DF92EF92FF920F931F93CF93DF93EC015B014A0169017801E88152
:20102000F9810284F385E02D0995C80CD91C860101501109E881F9810488F589E02D950142
:20104000A401B501CE010995E881F9810688F789E02DCE01DF91CF911F910F91FF90EF90CD
:20106000DF90CF90BF90AF909F908F9009940895EF92FF920F931F93DC01ED91FC9100A09E
:20108000F1A1E02D09951F910F91FF90EF9008950F931F93DC01ED91FC91068CF78DE02DB9
:2010A00009951F910F9108950F931F93DC01ED91FC91048CF58DE02D09951F910F910895BF
:2010C000DC01ED91FC910084F185E02D09942F923F924F925F926F927F928F929F92AF927B
:2010E000BF92CF92DF92EF92FF920F931F93CF93DF9300D000D000D0CDB7DEB72C017E83DC
:201100006D836A015901C801FC82EB824801841A950A97FE03C091948194910835012D81D1
:201120003E81621A730A77FE03C0719461947108681479045CF43A2D2B2D5C01832F922F74
:201140003D812E81DE82CD82C32ED22EAD81BE81AA16BB065CF43C2D2D2D6C01832F922FA1
:201160003D812E81BE82AD82A32EB22E85012D813E81021B130B1C012C183D0837FE03C016
:20118000319421943108780117FF03C03FEFE31AF30AF594E794C816D9062CF08FEF9FEF39
:2011A0009A83898304C0A1E0B0E0BA83A9832D813E81A216B30624F1D201ED91FC9104846F
:2011C000F585E02D2B813C816814790424F44D815E81B60103C0A6016D817E81C2010995F2
:2011E000E218F308F7FE06C029813A81C20ED31EE00EF11E8D819E8101969E838D83D7CF81
:2012000026960FB6F894DEBF0FBECDBFDF91CF911F910F91FF90EF90DF90CF90BF90AF9041
:201220009F908F907F906F905F904F903F902F90089585ED8093BC008091BC0084FDFCCFFF
:2012400010926902089508950895E0917F0480917E04E81730F4F0E0E052FE4F808190E040
:2012600008958FEF9FEF08950F931F93CF93DF93DC015696EC915697E23071F0E330E9F06E
:20128000E13079F5FB0114960D90BC91A02DA41BB50BA21BB30B18C0EC01EC81FD81E61BC7
:2012A000F70BBF0161507109EE81FF81DF01A41BB50BAD01421B530B14C0DA01EC01EE817F
:2012C000FF81E61BF70B3197F7FD0DC0EC014E815F81E417F5073CF4AF01BD010E946E17AA
:2012E00002C00E94D517DF91CF911F910F9108950F931F93DC015696EC915697E23061F0F7
:20130000E33009F1E13081F51496ED91FC911597E41BF50B319723C0DC011496ED91FC919C
:201320001597DF01A61BB70BBD01DC011696ED91FC911797DF01A41BB50BAD0141505109A6
:20134000621B730B11C0FA01DC0116964D915C911797DA01A61BB70BBD01621B730BAB0101
:20136000BF010E94D5170CC057FD0AC0DC011696ED91FC9117974E175F0714F40E946E17F9
:201380001F910F9108958F929F92AF92CF92EF92FF920F931F93CF93DF93EC01262F898DDA
:2013A0009A8D009709F042C06A3059F41D861C862D898E859F8538E0239F800D911D112411
:2013C00043C06D3009F4AAC08F898823C9F03C898C859D8546E0349F800D911D112448855C
:2013E00059854817590764F41D861C863D898E859F8548E0349F800D911D11249F878E8710
:20140000EA88FB88088919894E855F856C857D85AD88CC88CE010E943A152C898C859D85C9
:2014200036E0239F800D911D11243EC06A3079F41D861C862D89FC013696E4918E859F85EF
:201440002E9F800D911D11249F878E8767C06D3009F464C0FC0134963491631708F45EC00F
:201460003196E491E61708F459C0462F431B342FFC0132968590949047E0349F800C911CB7
:201480001124F401329634913196E491332311F0E1110DC0F4013496E4912C898C859D8527
:2014A000E29F800D911D11249D878C8737C0F401359644915F89552319F15C89E32FF0E047
:2014C000E40FF11D47FDFA955E9FB0015F9F700D11244C855D85460F571F688579856417F6
:2014E000750774F41D861C863D89FC013696E4918E859F853E9F800D911D11249F878E8700
:20150000EA88FB88088919894E855F856C857D85AD88CC88CE010E943A15BCCF81E090E054
:20152000DF91CF911F910F91FF90EF90CF90AF909F908F900895FC01848DDF01A80FB11D81
:20154000A35ABF4F2C91848D90E001968F739927848FA689B7892C93A089B1898C91837035
:2015600080648C93938D848D981306C00288F389E02D80818F7D8083089508958EBD00001E
:201580000DB407FEFDCF8EB508951F93CF93DF93FC01858D968D009729F1162FEF0121A179
:2015A00031E030936A0220938C0210926B0210928D02DC01ED91FC910190F081E02D60E033
:2015C00009958D8D9E8DDC01ED91FC910190F081E02D612F09958D8D9E8DDF91CF911F913E
:2015E0000C94DB0CA5A5B6A59C9183A9809589238C93838D948D892B31F0862FDF91CF91FB
:201600001F910C94BE0A28E030E080E8A1A5B2A591A9462F482319F04C91942B03C04C9136
:20162000909594239C93A3A5B4A54C9192A9942B9C93A3A5B4A54C9192A9909594239C9334
:2016400086952150310911F7DF91CF911F9108958CBD9DBD08951F93CF93DF93EC01162FA7
:201660008D8D9E8D892BB1F02FA938AD49AD5AAD60E074E284EF90E00E948820DA01C901AE
:201680004097A109B109B695A795979587958093B8000FC08B8D9C8D892B21F08DA99EA923
:2016A0000E94280BEFA5F8A990818CA9809589238083111102C066EA01C067EACE010E945F
:2016C000C50A8D8D9E8D892BB1F02BAD3CAD4DAD5EAD60E074E284EF90E00E948820DA013D
:2016E000C9014097A109B109B695A795979587958093B80006C0EFA5F8A990818CA9892B56
:201700008083DF91CF911F9108951F920F920FB60F9211242F933F934F935F936F937F9340
:201720008F939F93AF93BF93EF93FF938091B900887F803609F49CC068F5883209F45BC09E
:2017400090F4803109F454C038F4882309F4F6C0883009F44DC0F6C0883109F44CC08032CD
:2017600009F45DC0EFC0803409F468C048F4803309F455C0883309F0E5C080936702D8C059
:20178000803509F44FC0883509F45DC0883409F0D9C0D6C0883909F4C7C0A8F4883709F430
:2017A00067C038F4883609F463C0803709F460C0C9C0883809F4B8C0803909F45FC08038D9
:2017C00009F0C0C05BC0803B09F486C038F4803A09F466C0883A09F47FC0B4C0803C09F443
:2017E000A7C0883C09F4A4C0883B09F48AC0AAC08091440210C09091660280916502981712
:2018000070F5E091660281E08E0F80936602F0E0EB5BFD4F80818093BB0085EC86C0809316
:2018200067028EC0E091660281E08E0F809366028091BB00F0E0EB5BFD4F808390916602E5
:20184000809165026EC0E091660281E08E0F809366028091BB00F0E0EB5BFD4F808380914E
:20186000680281116DC081E08093430284EA61C083E08093690210924202CFCF809142023D
:20188000803208F051C0E091420281E08E0F809342028091BB00F0E0EE5DFD4F8083BDCFC1
:2018A00085EC8093BC001092690280914202803230F4E0914202F0E0EE5DFD4F1082609111
:2018C000420270E0E0917A04F0917B0482E292E009951092420236C084E0809369021092B1
:2018E000210210922002E0917C04F0917D04099580912002811105C081E0809320021092AE
:201900000002E091210281E08E0F80932102F0E0E050FE4F80818093BB009091210280918C
:201920002002981708F479CF85E88093BC000AC085EC8093BC001092690204C01092670270
:201940000E941909FF91EF91BF91AF919F918F917F916F915F914F913F912F910F900FBEF7
:201960000F901F90189540912002262F30E0240F311D21323105DCF4209169022430C9F40D
:20198000FC0180E090E0861758F4309120022191DC01A050BE4FA30FB11D2C930196F3CF8A
:2019A00080912002680F6093200280E0089581E0089582E0089530918D02313208F04BC0B8
:2019C000809169028111FCCF90918C0222E02093690221E0209368022FEF20936702109265
:2019E000660230936502ECE6F2E0A5E4B2E020E0321721F041914D932F5FFACF109244024B
:201A000020914402990F922B9093440290914302913061F410924302909144029093BB0059
:201A20009091BC0093FDF8CF95EC01C095EE9093BC00909169029230E1F3909167029F3F44
:201A400079F080916702803241F080916702803331F084E005C081E003C082E001C083E09F
:201A600010926B0210928D0210926A020895DF92EF92FF920F931F93CF93DF93D82ED92FC2
:201A8000C62F8091580490915904009709F454C020915C0431E030936A0220938C0210928A
:201AA0006B0210928D02DC01ED91FC910190F081E02D60E00995ED2CFD2E11E0D1E08091BC
:201AC000580490915904CC2371F11032C8F00E94DB0C80915C04D0936A0280938C021092D5
:201AE0006B0210928D028091580490915904DC01ED91FC910190F081E02D60E0099511E097
:201B00008091580490915904F7016491DC01ED91FC910190F081E02D09951F5FC150BFEF1B
:201B2000EB1AFB0ACCCFDF91CF911F910F91FF90EF90DF900C94DB0CE0916804F091690411
:201B4000908180916E048095892380830D2D1D2FCC2309F439C0F8018491209156043091E8
:201B60005704232B31F00E94BE0AC1500F5F1F4FEFCF28E030E040E8E0916404F091650483
:201B800090916C04582F542319F05081952B03C05081909595239083E0916604F0916704D1
:201BA000508190916D04952B9083E0916604F0916704508190916D049095952390834695FA
:201BC00021503109C9F6D1CFDF91CF911F910F91FF90EF90DF900895EF92FF920F931F935B
:201BE000CF93DF938091580490915904892BD1F020917204309173044091740450917504AF
:201C000060E074E284EF90E00E948820DA01C9014097A109B109B695A7959795879580933F
:201C2000B80016C08091560490915704892B31F080917004909171040E94280BE0916A048B
:201C4000F0916B04908180916F0480958923808365E088E690E00E94370D60913F0461504D
:201C60008BE394E00E94C50A2091410430914204C901079697FD079633E0959587953A9554
:201C8000E1F720913F0430914004829F8001839F100D929F100D1124C0915A04D0915B04A0
:201CA00080915804909159040C0F1D1F009709F44CC020915C0431E030936A0220938C02B0
:201CC00010926B0210928D02DC01ED91FC910190F081E02D60E40995FF24F394EE24E394B8
:201CE00080915804909159040C171D0759F1BFE1BF15D0F40E94DB0C80915C04E0926A0258
:201D000080938C0210926B0210928D028091580490915904DC01ED91FC910190F081E02D00
:201D200060E40995FF24F39480915804909159046991DC01ED91FC910190F081E02D09959D
:201D4000F394CECF0E94DB0C41C0E0916804F0916904908180916E04892B80830C171D0778
:201D6000A9F189912091560430915704232B19F00E94BE0AF3CF28E030E040E8E0916404EC
:201D8000F091650490916C04582F542319F05081952B03C05081909595239083E0916604D1
:201DA000F0916704508190916D04952B9083E0916604F0916704508190916D0490959523FA
:201DC0009083469521503109C9F6C8CF8091580490915904892BD1F020917604309177044D
:201DE000409178045091790460E074E284EF90E00E948820DA01C9014097A109B109B6954A
:201E0000A795979587958093B80017C0E0916A04F0916B04908180916F04892B8083809170
:201E2000560490915704892B41F0DF91CF911F910F91FF90EF900C94BD0ADF91CF911F91D2
:201E40000F91FF90EF9008952091410430914204C901079697FD079623E0959587952A959A
:201E6000E1F720913F0430914004829FA001839F500D929F500D112460E070E080915A048E
:201E800090915B040C94D621CF92DF92EF92FF92CF93DF936C01990FEE08FF08F7FE1BC091
:201EA0006DE28EE892E00E94FD10EC0144275527BA014C195D096E097F092AE08EE892E0F1
:201EC0000E946C118C0F9D1FDF91CF91FF90EF90DF90CF9008952AE0B701A6018EE892E0F2
:201EE000DF91CF91FF90EF90DF90CF900C946C11BC018EE892E00C94E9130F931F93CF9322
:201F0000DF938C01C0E0D0E0F801EC0FFD1F6491662341F08BE394E00E94C309892B11F0AE
:201F20002196F2CF6EE571E08BE394E00E94E9138C0F9D1FDF91CF911F910F9108953F9220
:201F40004F925F926F927F928F929F92AF92BF92CF92DF92EF92FF920F931F93CF93DF93AD
:201F600000D000D000D0CDB7DEB72C013B014A015901C901079697FD07969C0193E0359558
:201F800027959A95E1F73C832B83C12CD12CE12CF12C312CC3018E0D9F1D9A838983E01666
:201FA000F106C4F51E821D822D813E812A153B054CF5C90187709927892B11F0330C0EC0C2
:201FC000ED81FE81F7FD379683E0F595E7958A95E1F7EC0DFD1DE80DF91D349037FE0CC010
:201FE00021E030E049815A816D817E81640D751D8BE394E00E9460088D819E8101969E836A
:202000008D83D2CF9FEFE91AF90A2B813C81C20ED31EC0CF26960FB6F894DEBF0FBECDBFBF
:20202000DF91CF911F910F91FF90EF90DF90CF90BF90AF909F908F907F906F905F904F90EC
:202040003F9008951F93CF93DF93EC01162F62E0812F0E94E21819871886CE010E948D1280
:20206000882319F08885836088870E94DC196A837B838C839D83DF91CF911F910895FC01E2
:202080009085957081E0953009F080E00895FC01808580FD04C082FB882780F9089580E025
:2020A0000895CF92DF92EF92FF920F931F93CF93DF93EC0188858B7F8887CE010E948D1254
:2020C000182F888586958170181759F00E94DC196A837B838C839D83988582E08927888739
:2020E0003AC00E94DC19CA80DB80EC80FD80AB01BC014C195D096E097F098E819F81A0E0DF
:20210000B0E0481759076A077B0728F188858170181709F10E94DC196A837B838C839D838C
:20212000988581E08927846088870E94DC190A851B852C853D85DC01CB01801B910BA20BB8
:20214000B30B8E879F87A88BB98B0E94DC196A877B878C879D87888582FB882780F9DF912C
:20216000CF911F910F91FF90EF90DF90CF900895CF92DF92EF92FF920F931F93CF93DF932A
:202180006C017A018B01C0E0D0E0CE15DF0581F0D8016D918D01D601ED91FC910190F081FA
:2021A000E02DC6010995892B11F02196EECF7E01C701DF91CF911F910F91FF90EF90DF90A0
:2021C000CF900895FC01538D448D252F30E0842F90E0821B930B541710F0CF96089501978E
:2021E00008958EE892E00E94AE0521E0892B09F420E0822F08950E94D121EF92FF920F93BD
:202200001F93CF93DF93EC0181E0888F9B8D8C8D981305C0E889F989808185FD26C0F62EA2
:202220000B8D10E00F5F1F4F0F731127E02E8C8DE8120CC00FB607FCFACFE889F98980810E
:2022400085FFF5CFCE010E949B0AF1CF8B8DFE01E80FF11DE35AFF4FF0829FB7F8940B8FCB
:20226000EA89FB89808180620AC09FB7F894EE89FF896083E889F989808183708064808328
:202280009FBF81E090E0DF91CF911F910F91FF90EF900895CF93DF93EC01888D8823C9F00A
:2022A000EA89FB89808185FD05C0A889B9898C9186FD0FC00FB607FCF5CF808185FFF2CF2B
:2022C000A889B9898C9185FFEDCFCE010E949B0AE7CFDF91CF9108958F929F92AF92BF9211
:2022E000EF92FF920F931F93CF93DF93CDB7DEB7A1970FB6F894DEBF0FBECDBF7C01FA0194
:20230000CB0119A2223008F42AE08E010F5D1F4F822E912CA12CB12CBF01A50194010E94C1
:202320008820F901CA01015011096A3014F4605D01C0695CD8016C93232B242B252B61F7C3
:20234000B801C7010E94E913A1960FB6F894DEBF0FBECDBFDF91CF911F910F91FF90EF90B2
:20236000BF90AF909F908F9008951F920F920FB60F9211242F933F934F935F936F937F937B
:202380008F939F93AF93BF93EF93FF938EE892E00E949B0AFF91EF91BF91AF919F918F9122
:2023A0007F916F915F914F913F912F910F900FBE0F901F9018951F920F920FB60F92112459
:2023C0002F938F939F93EF93FF93E0919E02F0919F028081E091A402F091A50282FD12C00F
:2023E00090818091A7028F5F8F732091A802821751F0E091A702F0E0E257FD4F958F809347
:20240000A70201C08081FF91EF919F918F912F910F900FBE0F901F90189590917F04809115
:202420007E04981750F4E92FF0E0E052FE4F208130E09F5F90937F0402C02FEF3FEFC90193
:20244000089580917E0490E020917F04821B91090895089580E090E00895CF92DF92EF9277
:20246000FF920F931F93CF93DF937C01CB018A0120916A02222389F0EB016B01C40ED51ED7
:20248000CC15DD0569F06991D701ED91FC910190F081E02DC7010995F3CF642F0E94B30C18
:2024A000C801DF91CF911F910F91FF90EF90DF90CF900895CF93DF931F92CDB7DEB7698330
:2024C00020916A022223D1F020918D02203240F021E030E0FC013383228380E090E015C009
:2024E00080916B02E82FF0E0E459FD4F998190838F5F80936B0280938D0205C061E0CE01DC
:2025000001960E94B30C81E090E00F90DF91CF910895862F642F0C94E218CF93DF93FC0133
:20252000218530E0F901E456FA4F8491F901E857FA4FD491F901EC58FA4FC491CC2379F038
:2025400081110E948A18EC2FF0E0EE0FFF1FEA5AFA4FA591B491EC91ED2381E009F480E04C
:202560008170DF91CF9108950F931F93CF93DF938C0161308FEF780714F461E07FEFEB0117
:202580006F3F710519F014F0CFEFD0E0F80180819181009719F00197D9F036C0D7FD07C0FE
:2025A000BE01F80182810E941E1960E009C0662777276C1B7D0BF80182810E941E1961E02E
:2025C000F8018381DF91CF911F910F910C94B318D7FD08C0BE01F80182810E941E1960E003
:2025E00070E00AC060E070E0F80182810E941E19662777276C1B7D0BF8018381DF91CF9155
:202600001F910F910C941E19DF91CF911F910F910895609180047091810480918204909123
:2026200083046817790794F46F5F7F4F70938104609380048BE294E00E94B4126091800433
:202640007091810487E294E00E94B41260918004709181048091820490918304861797073A
:2026600094F46150710970938104609380048BE294E00E94B412609180047091810487E2FB
:2026800094E00E94B412209180043091810480918204909183042817390771F41092B20369
:2026A0001092BD031092BE031092BF031092C0031092C2031092C10308950E94240F0C94AD
:2026C000EC0D0F931F93CF93DF93FC012081222309F458C0EC01818592850197C1F40E94E8
:2026E000DC190B891C892D893E89DC01CB01801B910BA20BB30B09811A812B813C818017BF
:202700009107A207B307F0F10E94DC1917C00E947D190B891C892D893E89DC01CB01801B3D
:20272000910BA20BB30B09811A812B813C8180179107A207B30730F10E947D196B8B7C8B1C
:202740008D8B9E8B8B859C85AD85BE854D815E816F817885481B590B6A0B7B0B413051056F
:202760006105710509F418820196A11DB11D8B879C87AD87BE87E989FA89DF91CF911F91A0
:202780000F910994DF91CF911F910F910895CF93DF93FC0121893289232BC1F0EC01818517
:2027A0009285019719F40E94DC1902C00E947D196B8B7C8B8D8B9E8B81E088831B861C86DF
:2027C0001D861E8681E090E0988B8F87DF91CF9108956115710579F0FB0101900020E9F759
:2027E0003197AF01461B570BDC01ED91FC910280F381E02D099480E090E0089585E691E0CD
:202800000E94780F4091A2035091A3036091A4037091A5032AE08EE892E00E946C118EE6CC
:2028200091E00E94780F4091840450E060E070E02AE08EE892E00E946C1187E791E00E9453
:20284000780F80918004909181040E94440F8FE791E00E94780F80918204909183040E94D0
:20286000440F8EE891E00E94780F80911D04817090E00E94440F8CE991E00E94780F80914D
:202880000B04817090E00E94440F8AEA91E00E94780F8091F903817090E00E94440F8CEBEB
:2028A00091E00E94780F8091E703817090E00E94440F8FEC91E00E94780F8091D50381703E
:2028C00090E00E94440F6DED71E08EE892E00E94E9136EE571E08EE892E00C94E913CF93D8
:2028E000C82F809384040E94240F83E080934F048093500481E090E090934E0480934D0497
:2029000090934C0480934B04109248041092470410924A0410924904C230E9F038F4CC2342
:2029200061F0C13081F581E495E017C0C33081F0C43049F589E295E010C088E495E00E9465
:202940007D0F8BE293E00E94C71361E671E017C089E395E002C081E395E00E947D0F1092D4
:202960002B031092360310923703109238031092390310923B0310923A0363E671E08EE8E8
:2029800092E00E94E913CF910C94EC0D80E00E946F14109283041092820482EB93E00C94D8
:2029A000C71381E00E946F14109283041092820482EB93E00E94C71386E493E00C94C713B3
:2029C0008091510390915203A0915303B09154038897A105B105A1F48091D50380FD0DC0BA
:2029E00083E00E946F148CE99FEF909383048093820482EB93E00C94C71384E00C946F1428
:202A00000E94240F83E080934F048093500481E090E090934E0480934D0490934C04809381
:202A20004B04109248041092470410924A04109249048FE495E00E947D0F809151039091F1
:202A40005203A0915303B091540348E250E060E070E0481B590B6A0B7B0B2AE08BE394E06A
:202A60000E946C116EE571E08BE394E00E94E9130C94EC0D2F923F924F925F926F927F9204
:202A80008F929F92AF92BF92CF92DF92EF92FF920F931F93CF93DF93CDB7DEB76B970FB666
:202AA000F894DEBF0FBECDBF9B8F8A8F1B014A01D22E198708873701A982DC0159962D91CE
:202AC0003C915A972115310509F0FFC018968D919C911997681779070CF0E7C11A968D91FA
:202AE0009C911B97481759070CF0DFC1EC2DF0E0FB83EA839B0146E0C49E200D311D1124F4
:202B00003D872C87121613060CF0CFC16A2D70E07B876A8783E0660F771F8A95E1F77F872C
:202B20006E87CB01880D991D181619060CF0BDC158968C91811104C08FEA8D1508F4D394E3
:202B4000AA8DBB8DED91FC9111970284F385E02DCD010995B5E0DB9EC0011124EC2DF0E0DF
:202B6000F98BE88B91012B5F3F4F3B8B2A8B3D822C822101AC01421953095D8B4C8B79818D
:202B8000672F70E07F8B6E8BC4010896998F888FEC89FD89E40DF51DE054FA4FD490540176
:202BA0009F828E82D0FE16C0AA8DBB8DED91FC91B1E0CB1209C02981213031F40484F5855D
:202BC000E02D2885398519C00684F785E02DE884F9841DC0488559854615570519F1AA8D28
:202BE000BB8DED91FC91B1E0CB120DC02981213051F40484F585E02D9301A501B2018A8DF4
:202C00009B8D09950FC00684F785E02D73010A851B852A813B814E815F816C817D818A8D51
:202C20009B8D0995D6943FEFA31AB30A4E815F816E897F89460F571F5F834E83888D998D55
:202C4000A816B90609F0AECF9FEF491A590AAC81BD81E889F989AE0FBF1FBD83AC832A8912
:202C60003B894216530609F093CF488559854615570509F4F8C0AA8DBB8DED91FC91B1E052
:202C8000CB1211C02981213071F4B1016B5F7F4F0088F189E02D830128E030E0A4018A8D75
:202CA0009B8D0995E0C06C857D854A815B81641B750B0684F785E02D73010E851F859A01BC
:202CC000A4018A8D9B8D0995CEC0F9013496E491DE1AF901329685919491B7E0DB9E800D19
:202CE000911D1124F901259134913B8B2A8BFC01259134915901FC013296549031963491FA
:202D00003C87329674903196149141E04C1518F05981523068F0672D072C000C770B7D8325
:202D20006C83812F012E000C990B9B838A8304C01B821A821D821C82AA8DBB8DED91FC9126
:202D400011970284F385E02DCD010995412CD12C612CF981EF2FF0E0FF83EE832C2D30E099
:202D60003B872A87A401410F511D17FD5A955F8B4E8BB101670D711D77FC7A95798F688F82
:202D80007C85671608F06FC0262D30E04A815B81420F531FAE81BF81A49FC001A59F900D6D
:202DA000B49F900D1124F401E80FF91FF98BE88B842D712C4E895F89420F531F5D8B4C8B64
:202DC000751408F04DC051E0580F5E87877041F4C5010196EA89FB89EA0DFB1DD4905C0198
:202DE000D7FE3AC061E0C61216C07981713099F4AA8DBB8DED91FC9111970484F585E02DAC
:202E0000288539854C895D89688D798D670D711DCD01099521C08C819D81870D911DEA8566
:202E2000FB858E9FB0018F9F700D9E9F700D1124620D731DAA8DBB8DED91FC9111970684DF
:202E4000F785E02DE884F9840E811F812A853B8548895989CD010995DD0C73948E85B0CFC1
:202E6000450C63948DCFAA8DBB8DED91FC9111970688F789E02DCD016B960FB6F894DEBFA4
:202E80000FBECDBFDF91CF911F910F91FF90EF90DF90CF90BF90AF909F908F907F906F90F3
:202EA0005F904F903F902F9009946B960FB6F894DEBF0FBECDBFDF91CF911F910F91FF9022
:202EC000EF90DF90CF90BF90AF909F908F907F906F905F904F903F902F9008950F931F936E
:202EE000CF93DF9377FF04C0260F371F60E070E0DC011496CD91DC911597FB01E20FF31FAC
:202F0000CE17DF071CF49E01261B370B121613060CF046C0FA0157FD3796DF01E3E0B59568
:202F2000A795EA95E1F7AC9FF001AD9FF00DBC9FF00D11246E0F7F1FDC015F96ED91FC91F4
:202F40009097E60FF71F4770552781E090E001C0880F4A95EAF7482F0130110539F078F0D4
:202F600002301105E9F42E0F3F1F13C02E0F3F1FE217F307A9F08081842B8193F9CF8095F6
:202F80002E0F3F1FE217F30759F0908198239193F9CFE217F30721F0808184278193F9CF16
:202FA000DF91CF911F910F910895EF92FF920F931F93CF93DF93EC0177FDA5C0EC80FD806B
:202FC0006E157F050CF09FC057FF04C0240F351F40E050E08E819F81FA01E20FF31F8E17CC
:202FE0009F071CF49C01241B350B121613060CF08AC0922F842F8695869586958E9DD001B7
:203000008F9DB00D11246A0F7B1FAF8DB8A1A60FB71F4770B1F188E0841B482F682F70E0A1
:20302000FB01E854FA4FE491281798F4621B71092FEF30E002C0359527956A95E2F7E22385
:203040000130110549F078F00230110509F05BC00EC00130110519F48C91E82B0AC00130DF
:20306000110508F049C0E0958C91E82302C08C91E827EC93941708F446C02C813D81A20F66
:20308000B31FE92FE41BE830F8F00230110561F48E2F9C9190959C932C813D81A20FB31F7E
:2030A00088508830B0F70FC081E00115110509F480E081959E2F8C932C813D81A20FB31F30
:2030C00098509830C0F7E770EE23E9F0F0E0E055FA4FE4910130110539F048F00230110595
:2030E00091F48C91E82706C08C91E82B03C0E0958C91E823EC9307C00230110509F4B7CFB8
:20310000AE0DBF1DBECFDF91CF911F910F91FF90EF900895833081F028F4813099F0823094
:20312000A1F008958730A9F08830B9F08430D1F4809180008F7D03C0809180008F7780932D
:203140008000089584B58F7702C084B58F7D84BD08958091B0008F7703C08091B0008F7DD7
:203160008093B00008951F93CF93DF93282F30E0F901E456FA4F8491F901E857FA4FD49189
:20318000F901EC58FA4FC491CC23C1F0162F81110E948A18EC2FF0E0EE0FFF1FE659FA4F0A
:2031A000A591B4919FB7F894111104C08C91D095D82302C0EC91DE2BDC939FBFDF91CF916A
:2031C0001F910895CF93DF9390E0FC01E857FA4F2491FC01EC58FA4F8491882361F190E018
:2031E000880F991FFC01E05AFA4FC591D491FC01E659FA4FA591B491611109C09FB7F89428
:203200008881209582238883EC912E230BC0623061F49FB7F8948881322F309583238883FE
:20322000EC912E2B2C939FBF06C08FB7F894E8812E2B28838FBFDF91CF9108951F93CF93C7
:20324000DF93182FEB0161E00E94E218209711F460E004C0CF3FD10539F461E0812FDF91BA
:20326000CF911F910C94B318E12FF0E0E456FA4FE491E330F9F048F4E130B9F0E230A1F561
:2032800084B5806284BDC8BD34C0E730E9F0E83019F1E43049F580918000806280938000EF
:2032A000D0938B00C0938A0024C084B5806884BDC7BD1FC080918000806880938000D0932B
:2032C0008900C093880015C08091B00080688093B000C093B3000DC08091B00080628093C0
:2032E000B000C093B40005C0C038D1050CF0B5CFAFCFDF91CF911F9108953FB7F8948091D6
:20330000900490919104A0919204B091930426B5A89B05C02F3F19F00196A11DB11D3FBF49
:20332000BA2FA92F982F8827820F911DA11DB11DBC01CD0142E0660F771F881F991F4A9595
:20334000D1F708958F929F92AF92BF92CF92DF92EF92FF926B017C010E947D194B015C0176
:20336000C114D104E104F104F1F00E947D19DC01CB0188199909AA09BB09883E9340A1050E
:20338000B10570F321E0C21AD108E108F10888EE880E83E0981EA11CB11CC114D104E1043E
:2033A000F10419F7DDCFFF90EF90DF90CF90BF90AF909F908F9008952FB7F89460918C0414
:2033C00070918D0480918E0490918F042FBF08951F920F920FB60F9211242F933F938F93D6
:2033E0009F93AF93BF9380918C0490918D04A0918E04B0918F0430918B0423E0230F2D3734
:2034000020F40196A11DB11D05C026E8230F0296A11DB11D20938B0480938C0490938D04B3
:20342000A0938E04B0938F048091900490919104A0919204B09193040196A11DB11D8093C1
:20344000900490939104A0939204B0939304BF91AF919F918F913F912F910F900FBE0F9002
:203460001F901895CF93DF93EEE8F2E01382128248EE53E060E070E04483558366837783D0
:203480008AE091E09183808385EC90E09587848784EC90E09787868780EC90E0918B808B24
:2034A00081EC90E0938B828B82EC90E0958B848B86EC90E0978B868B118E128E138E148E60
:2034C000AFE2B4E013961C921E92129714964D935D936D937C9317978CE191E011969C932C
:2034E0008E93EBE3F4E01382128220E830E03583248380E490E097838683318720879387F9
:203500008287168A158614861786168681E0858B848B2FEF3FEF338B228B318B208B878BE4
:20352000108E128E118E86E391E091838083148E138EB68FA58F10A2178E8FEF84A385A3DD
:2035400086A387A380A780E585AB16AA80E89AE1A6E0B0E087AB90AFA1AFB2AF80EA96E899
:20356000A1E0B0E083AF94AFA5AFB6AFCBE2D4E01982188289E08A8388E08B8361E089E0E0
:203580000E94E21861E08B810E94E21860E08A810E94B31860E08B810E94B318C7E2D4E0D8
:2035A000198218828BE08A838DE08B8361E08BE00E94E21861E08B810E94E21860E08A8167
:2035C0000E94B31860E08B810E94B318E5E1F4E02EE231E03183208312821382148215825D
:2035E0008AE090E09783868310861186E3E0F4E0318320831282138214821582978386833A
:2036000010861186E1EFF3E03183208312821382148215829783868310861186EFEDF3E02E
:203620003183208312821382148215829783868310861186EDECF3E0318320831282138261
:20364000148215829783868310861186E2EBF3E01286118688E893E1A0E0B0E08183928311
:20366000A383B483158216821782108689E093E1928B818B1082138A148A158A168A1386E4
:20368000148615861686E7E9F3E01286118680E894E8AEE1B0E081839283A383B483158277
:2036A0001682178210868EEF93E1928B818B1082138A148A158A168A1386148615861686B3
:2036C000ECE7F3E01286118680EA9BEBADE0B0E081839283A383B48381E090E0A0E0B0E0B1
:2036E00085839683A783B08726EC34E1328B218B1082138A148A158A168A138614861586DE
:203700001686E1E6F3E01286118640E653EE66E170E0418352836383748385839683A78385
:20372000B08721ED34E1328B218B1082138A148A158A168A1386148615861686E6E4F3E0B3
:203740001286118640E452E46FE070E0418352836383748348E250E060E070E04583568340
:203760006783708720EE34E1328B218B1082138A148A158A168A1386148615861686EBE299
:20378000F3E01286118640E057E863E973E0418352836383748385839683A783B0878DE5BF
:2037A00093E1928B818B1082138A148A158A168A1386148615861686DF91CF91089578947D
:2037C00084B5826084BD84B5816084BD85B5826085BD85B5816085BD80916E008160809304
:2037E0006E00109281008091810082608093810080918100816080938100809180008160B7
:20380000809380008091B10084608093B1008091B00081608093B00080917A0084608093C4
:203820007A0080917A00826080937A0080917A00816080937A0080917A00806880937A001B
:203840001092C10062E070E085E194E00E942210C4E1D0E0D0931C04C0931B0463E070E0E8
:2038600083E094E00E942210D0930A04C093090464E070E081EF93E00E942210D093F80323
:20388000C093F70365E070E08FED93E00E942210D093E603C093E50366E070E08DEC93E07A
:2038A0000E942210D093D403C093D303E0919E02F0919F0282E08083E0919A02F0919B020E
:2038C0001082E0919C02F0919D028FEC80831092A602E091A202F091A30286E08083E0914A
:2038E000A002F091A102808180618083E091A002F091A102808188608083E091A002F09166
:20390000A102808180688083E091A002F091A10280818F7D808380915A0490915B04892B2E
:2039200011F52091410430914204C901079697FD079603E0959587950A95E1F720913F0458
:2039400030914004AC01429FC001439F900D529F900D11240E94B02090935B0480935A046C
:20396000892B09F410C10E94240F209141043091420480913F0490914004213231050CF4B1
:2039800034C2B9016054710977FF02C06F5F7F4F759567958255910997FD019600E410E0FF
:2039A00022E530E049E652E0959587950E949F0F82E080935D048091580490915904892B84
:2039C00009F427C28CE380935C0410927F0410927E0410926B0210928D021092690281E028
:2039E000809368021092430261E082E10E94B31861E083E10E94B3188091B9008E7F809356
:203A0000B9008091B9008D7F8093B90088E48093B80085E48093BC0083E299E090937D045A
:203A200080937C0484E299E090937B0480937A048091630487FD1EC061E00E94E21861E0E9
:203A4000809163040E94B31861E070E080E090E00E94A21960E0809163040E94B3186AE054
:203A600070E080E090E00E94A21961E0809163040E94B3188091580490915904892B09F407
:203A800087C22091720430917304409174045091750460E074E284EF90E00E948820DA013D
:203AA000C9014097A109B109B695A795979587958093B80064E085E890E00E94370D60916F
:203AC000410461508BE394E00E94C50A64E081E890E00E94370D80915D04813009F46FC249
:203AE00064E18BE394E00E94C50A64E08DE790E00E94370D80913F04909140048038910519
:203B000009F070C280914104909142048032910509F057C264E089E790E00E94370D69ED03
:203B20008BE394E00E94C50A80915D04813009F475C261EF8BE394E00E94C50A66E08DE67F
:203B400090E00E94370D8091580490915904892B09F466C220917604309177044091780497
:203B60005091790460E074E284EF90E00E948820DA01C9014097A109B109B695A795979591
:203B800087958093B8000E94240F0E94EC0D1092810410928004109283041092820481E0CF
:203BA00080938A04C1E00CE91FEF84E6E82EF12CCC24C394DD24DA94AA24AA94B12C87E914
:203BC00093E00E94611382EB93E00E94611381E693E00E9461138CE793E00E94611386E410
:203BE00093E00E9461138BE293E00E94611385E194E00E94511083E094E00E94511081EF1F
:203C000093E00E9451108FED93E00E9451108DEC93E00E9451108EE892E00E94AE051816E2
:203C2000190644F48EE892E00E948C0580938604C0938704809187048823F1F01092870442
:203C400080918604833411F08F3411F4C0938904833519F4C09388040FC08A3569F48091C9
:203C60008404811103C061E671E002C063E671E08EE892E00E94E91380918A04882389F02A
:203C800010928A048091E70380FF02C080E007C08091F90380FF02C081E001C084E00E941B
:203CA0006F1485E194E00E94471090918904811102C0992369F0911110928904809184042D
:203CC000813009F4C8C108F4BEC1843009F4DDC183E094E00E943F1090918804811102C01A
:203CE000992309F191111092880410924603109251031092520310925303109254031092D3
:203D0000560310925503809184048250823058F484E00E946F14109283041092820482EBA0
:203D200093E00E94C71380918404833079F481EF93E00E9447108823E1F0D0928304C09248
:203D4000820482EB93E00E94C71313C0823009F049C08FED93E00E944710882309F4B2C1F7
:203D6000B0928304A092820482EB93E00E94C713A9C18FED93E00E943F10882361F010937D
:203D800083040093820482EB93E00E94C7138CE793E00E94C7138DEC93E00E943F1088233D
:203DA00009F110927C0310928703109288031092890310928A0310928C0310928B0382E06F
:203DC0000E946F148091F90380FF8EC1F0928304E092820481E693E00E94C71382EB93E0AC
:203DE0000E94C7130E94BA05EACEB9016052710977FF02C06F5F7F4F7595679583579109FA
:203E000097FD019600E210E023E730E049E850E0CBCD61E0809161040E94E21861E08091ED
:203E200062040E94E21880916104082E000C990BFC01EC58FA4FE491F0E0EE0FFF1FE659FB
:203E4000FA4F259134913093690420936804FC01E857FA4FE491E0936E0480916204082EC3
:203E6000000C990BFC01EC58FA4FE491F0E0EE0FFF1FE659FA4FA591B491B0936B04A093C0
:203E80006A04FC01E857FA4FE491E0936F048C91E82BEC938091560490915704892B09F48D
:203EA00034C0CFB7F89480918504811127C0EEE7F5E08491E2E9F5E09491E82FF0E0EE0F81
:203EC000FF1FE05AFA4FA591B491EC91E92321F461E08AE00E94B31861E08AE00E94E218C9
:203EE0008CB580618CBD8CB580648CBD61E08DE00E94E21861E08BE00E94E21880918504BD
:203F00008F5F80938504CFBF93CD61E080915F040E94E21861E0809160040E94E218809175
:203F20005F04082E000C990BFC01EC58FA4FE491F0E0EE0FFF1FE659FA4F25913491309388
:203F4000650420936404FC01E857FA4FE491E0936C0480916004082E000C990BFC01EC5864
:203F6000FA4FE491F0E0EE0FFF1FE659FA4FA591B491B0936704A0936604FC01E857FA4FC5
:203F8000E491E0936D048C91E095E823EC9350CD8091560490915704892B31F0809170044E
:203FA000909171040E94280BE0916A04F0916B04908180916F048095892380837BCD60E1E5
:203FC00090CD8034910509F0AACD63E086E790E00E94370D80915D04813011F06FEC19C06C
:203FE0006FE917C08036910509F099CD8091410490914204409709F092CD63E083E790E0DE
:204000000E94370D80915D04813011F06FEA01C060E18BE394E00E94C50A81CD62E28ACDFF
:20402000E0916A04F0916B04908180916F04892B80838091560490915704892B09F4A3CD5D
:204040000E94BD0AA0CD82E00E946F14F0928304E092820432C08091D50380FD39CE109201
:20406000460310925103109252031092530310925403109256031092550383E00E946F149C
:20408000109383040093820418C08091D50380FD1FCE83E00E946F148091E70380FF09C0E7
:2040A00010938304009382048CE793E00E94C71304C0D0928304C092820482EB93E00E9454
:2040C000C71306CE81EF93E00E943F10882309F489CEF0928304E092820482EB93E00E94DC
:2040E000C71381E693E07CCEB0928304A092820475CE86E391E090933C0480933B0480915E
:204100005A0490915B04009711F00C9448210895A1E21A2EAA1BBB1BFD010DC0AA1FBB1FAF
:20412000EE1FFF1FA217B307E407F50720F0A21BB30BE40BF50B661F771F881F991F1A9458
:2041400069F760957095809590959B01AC01BD01CF010895EE0FFF1F0590F491E02D099478
:204160000F931F93CF93DF938230910510F482E090E0E0919604F091970420E030E0A0E042
:20418000B0E0309719F1408151810281138148175907C8F08417950769F4109731F0129699
:2041A0000C93129713961C9327C0009396041093970422C02115310519F04217530718F4F7
:2041C0009A01BD01EF01DF01F801DBCF21153105F9F0281B390B2430310580F48A819B8112
:2041E0006115710521F0FB019383828304C09093970480939604FE01329644C0FE01E20FC1
:20420000F31F8193919322503109398328833AC02091940430919504232B41F4209102016D
:2042200030910301309395042093940420910001309101012115310541F42DB73EB7409152
:20424000040150910501241B350BE0919404F0919504E217F307A0F42E1B3F0B2817390737
:2042600078F0AC014E5F5F4F2417350748F04E0F5F1F50939504409394048193919302C063
:20428000E0E0F0E0CF01DF91CF911F910F910895CF93DF93009709F481C0FC0132971382FD
:2042A0001282A0919604B0919704109781F420813181820F931F209194043091950428172F
:2042C000390751F5F0939504E093940467C0ED0120E030E0CE17DF0740F44A815B819E01C7
:2042E00041155105F1F0EA01F5CFD383C28340815181840F951FC817D90759F488819981DE
:20430000840F951F0296918380838A819B81938382832115310529F4F0939704E0939604B1
:204320003DC0E901FB83EA8349915991C40FD51FEC17FD0761F480819181840F951F0296D2
:20434000E90199838883828193819B838A83E0E0F0E012968D919C911397009719F0FD013F
:20436000DC01F7CF8D919C9111979D012E5F3F4F820F931F20919404309195042817390789
:2043800069F4309729F4109297041092960402C013821282B0939504A0939404DF91CF9101
:2043A000089581E090E0F8940C94DD21DC0101C06D9341505040E0F7089515E0C1E6D5E0E1
:2043C00004C0FE010E94AA202196C236D107C9F7F894FFCF00009804200000000000FD1044
:2043E000B810E2104A11AE058C05A005000000005A122D122A12370821120D122509000019
:2044000000008D12891200000000C309B8102A122912C4053708600838085408480867088C
:20442000370882062B0B3409780980076307F60697060D0A0063006F00436F756E7465726E
:204440003A007C5374617475733A007C53706565643A007C5370656564205461726765744D
:204460003A007C427574746F6E204F70656E3A007C427574746F6E2053746F703A007C4664
:20448000696E6520436F727361204F70656E3A007C46696E6520436F72736120436C6F7315
:2044A000653A007C466F746F63656C6C756C613A00200000FFFFFFFFFFFFFFFFFFFFFFFF19
:2044C000FFFFFFFFFFFFFFFFFFFFFFFFFFFFFFFFFFFFFFFFFFFFFFFFFFFFFFFFFFFFFFFFFC
:2044E000FFFFFFFFFFFFFFFFFFFFFFFFFFFFFFFFFFFFFFFFFFFFFFFFFFFFFFFFFFFFFFFFDC
:20450000FFFFFFFFFFFFFFFFFFFFFFFFFFFFFFFFFFFFFFFFFFFFFFFFFFFFFFFFFFFFFFFFBB
:20452000FFFFFFFFFFFFFFFFFFFFFFFFFFFFFFFFFFFFFFFFFFFFFFFFFFFFFFFFFFFFFFFF9B
:207E0000112484B714BE81FFF0D085E08093810082E08093C00088E18093C10086E08093FC
:207E2000C20080E18093C4008EE0C9D0259A86E020E33CEF91E0309385002093840096BBAD
:207E4000B09BFECF1D9AA8958150A9F7CC24DD2488248394B5E0AB2EA1E19A2EF3E0BF2E79
:207E6000A2D0813461F49FD0082FAFD0023811F0013811F484E001C083E08DD089C0823404
:207E800011F484E103C0853419F485E0A6D080C0853579F488D0E82EFF2485D0082F10E0A0
:207EA000102F00270E291F29000F111F8ED068016FC0863521F484E090D080E0DECF84364D
:207EC00009F040C070D06FD0082F6DD080E0C81680E7D80618F4F601B7BEE895C0E0D1E0ED
:207EE00062D089930C17E1F7F0E0CF16F0E7DF0618F0F601B7BEE89568D007B600FCFDCF1A
:207F0000A601A0E0B1E02C9130E011968C91119790E0982F8827822B932B1296FA010C016F
:207F200087BEE89511244E5F5F4FF1E0A038BF0751F7F601A7BEE89507B600FCFDCF97BE85
:207F4000E89526C08437B1F42ED02DD0F82E2BD03CD0F601EF2C8F010F5F1F4F84911BD0B8
:207F6000EA94F801C1F70894C11CD11CFA94CF0CD11C0EC0853739F428D08EE10CD085E9AE
:207F80000AD08FE07ACF813511F488E018D01DD080E101D065CF982F8091C00085FFFCCF0A
:207FA0009093C60008958091C00087FFFCCF8091C00084FD01C0A8958091C6000895E0E68F
:207FC000F0E098E1908380830895EDDF803219F088E0F5DFFFCF84E1DECF1F93182FE3DF47
:207FE0001150E9F7F2DF1F91089580E0E8DFEE27FF270994FFFFFFFFFFFFFFFFFFFF040425
:00000001FF
